:100000009EEF03F00000000000EF00F00000000091
:0A0010000000000000000000F3D71C
:10001C000F0E0C6E470E0D6E0D2EFED70C2EFCD750
:06002C00000000001200BC
:06003200000000001200B6
:0A003800210E0D6E0D2EFED71200F2
:080042000AAE029E000E12003E
:0E004A00026A016A006A086A036A000E120068
:100058000B840BAE37EF00F0010E036E026A016AE3
:0A006800006A0A360232FF0E120091
:1000720048BE02D0839E01D0838E48BC02D0839CAE
:1000820001D0838C48BA02D0839A01D0838A48B8BF
:1000920002D0839801D083882BB002D0848401D00F
:1000A20084948482C5DF849248B602D0839E01D0B4
:1000B200838E48B402D0839C01D0838C48B202D094
:1000C200839A01D0838A48B002D0839801D0838872
:1000D2002BB002D0848401D084948482A9DF8492DC
:0C00E2002BA002D09ADF01D0A6DF120094
:1000EE000B820BAE81EF00F00368026801680068B6
:0800FE000A360232FF0E120067
:10010600020E0C6E490E0D6E0D2EFED70C2EFCD770
:06011600000000001200D1
:0C011C000E0E0D6E0D2EFED7000012001E
:10012800086A096A100E0C6E013408360936045044
:10013800085E0550D8A0053C095ED8B007D0045029
:1001480008260550D8B0053C0926D8900036013657
:060158000C2EEAD7120094
:10015E000B800BAEBBEF00F0026A0AAEFF0E026E12
:0C016E00016E006E0A360232FF0E120015
:10017A000C6A0E6A0250D8A4D6EF00F001C002F051
:10018A0000C001F0006A0E860250D8A4D6EF00F033
:10019A0001C002F0016A0E960E880250D8B4E8EF48
:1001AA0000F00E50035ED8A4D8A0EDEF00F0D8906E
:1001BA0002BEF2EF00F0003601360236032EDDEF02
:1001CA0000F0EDEF00F0010E0C6E3ADFF5EF00F0F3
:1001DA00020E0C6E3CDFF5EF00F0040E0C6E2CDF05
:0201EA00120001
:0C01EC002B9047C048F03FDF2B80120032
:1001F8000B6A0A6A096A00500402F4CF09F0F3CFC7
:1002080008F001500502F4CF0BF0F3CF0AF00050CC
:100218000502F3500926F4500A22E86A0B2201501D
:100228000402F3500926F4500A22E86A0B2208C097
:1002380000F009C001F00AC002F00BC003F0120080
:10024800CB50010F006E016A000E012240C004F07D
:10025800000E056ECDDF060E026E00C004F001C070
:1002680005F0025005E005320432059EFF0FFAD76B
:10027800040E016E04C000F0015004E00036009046
:10028800FF0FFBD7300E0014036E04C000F005C04A
:1002980001F001320032019E01320032019E00C09D
:0C02A800BEFF0F0EBD160350BD12120069
:1002B400969296949598959A959C959E84928494FA
:1002C400839E839C839A8398A7DEA6DEA5DE838A19
:1002D40083888482ACDE84929FDE8482A8DE84924A
:1002E4009BDE8482A4DE849297DE839884829FDEE0
:1002F400849292DE84829BDE8492839A838E8482AB
:1003040096DE849289DE839E8388848290DE849242
:10031400839884828CDE84927FDE848288DE849259
:100324008388848284DE849277DE839884827FDE6D
:100334008492838E838C838A8388848278DE8492F9
:060344006BDE2B801200AD
:10034A000900F5CFE6FF0006FBE10106F9E112001C
:08035A00BE6ABD98BD9A1200B5
:0A0362009494CA840C0EBD12120020
:10036C00C26A2A1C006E0050C116070EC012C08E45
:10037C0040C000F000360090003600900050C212D1
:10038C00C280C6DEC282C2A201D0FDD7C4CF01F0AA
:0E039C00006AC3500012000E0112C29012003F
:1003AA00466A42C001F0010E006E015004E00036B8
:1003BA000090FF0FFBD700C045F040C0E9FF41C0E5
:1003CA00EAFF0050EE14016E0152010ED8A4000E8D
:1003DA00006E4450001A18E04350000804E28EDE12
:1003EA008DDE4306F9D740C0E9FF41C0EAFF455018
:1003FA00EE14016E0152010ED8A4000E006E445094
:0E040A00001A02E0FF0E466E46C000F012001F
:10041800086A096A000E0762036491EF02F002504D
:1004280006180A6E075003267E0ED8A022EF02F0A7
:10043800035ED8B095EF02F026EF02F0035ED8A075
:1004480099EF02F0028E068E02C00EF001C00BF08A
:1004580000C00DF000500402F4CF0CF0015005026A
:10046800F4CF00F0F3CF08F00402F3500C26F45058
:100478000822000E00220D500502F3500C26F450FD
:100488000822000E002202500402F3500826F450FD
:10049800002202500502016A000E0122F3500026D4
:1004A800F45001220D500602F3500826F4500022A1
:1004B800026A000E012202220B500602F3500026A7
:1004C800F4500122000E02220E500602F3500126BB
:1004D800F450022202BE79EF02F0083600360136E7
:1004E80002360306D8B499EF02F08CEF02F0D880F8
:1004F800800E08640030000E002201220222D8A0DB
:100508008CEF02F0023201320032034A95EF02F01A
:100518000AAE029E000E9BEF02F0010E92DD9BEFE9
:1005280002F0020EE0DD9BEF02F0040E91DD1200F6
:100538000B6A0350D8B4E2EF02F002500A6E028E42
:100548008E0E035E03AEE6EF02F0036C080E035C4A
:10055800D8A0C1EF02F0036E013602C001F0026AB2
:10056800080E035CD8A0C1EF02F0036E0136016AE1
:100578000350D8A4D890CBEF02F00350D8B4CBEFF7
:1005880002F0D89002320132032EC5EF02F00BBC04
:1005980001A0D8EF02F0D8A0D8EF02F0012AD8B411
:1005A800022A02BEF5EF02F00AAEFAEF02F0021ECE
:1005B800011E012AD8B4022AFAEF02F0026A016A7F
:1005C800FAEF02F00B800BAEFEEF02F0026A0AAE01
:1005D800FEEF02F0FF0E026E016E0A360232FEEFE7
:1005E80002F0010E0C6EB7DD00EF03F0000E0C6E8A
:1005F80000EF03F0FF0E0C6E0150006E0250016E0A
:020608001200DE
:10060A000FD0800E406E19D0C00E406E16D0940ED8
:10061A00406E13D0D40E406E10D0800E406E0DD0B6
:10062A004050010AEEE04050020AEEE04050030A50
:10063A00EEE04050040AEEE0F0D74104006E40506C
:10064A00002600C040F000C048F00EDD2B90446A3E
:10065A0044504224E96E000E4320EA6EEE520BE04B
:10066A0044504224E96E000E4320EA6EEECF47F072
:0A067A00B8DD442AEDD72B801200F2
:100684000050086E0150006E016A026A036A0B6A28
:100694000C6A960E036E0A6A00C001F008C000F0EE
:0806A400086A026A68DD120019
:1006AC00446A050E445C0AE244504224E16E000E9A
:1006BC004320E26E200EE66E442AF3D744504224C7
:1006CC00E16E000E4320E26EE66A4406445042247A
:1006DC00456E000E4320466E0A0E046E000E056E2B
:1006EC0040C000F041C001F019DD08C000F009C0A5
:1006FC0001F0300E002645C0E1FF46C0E2FF00C00D
:10070C00E6FF0A0E046E000E056E40C000F041C0FC
:10071C0001F004DD00C040F001C041F0000E0118F2
:10072C0002E1000E001801E102D04406CFD71200FE
:10073C00C5EC04F0386A396A3A6A3B6A3C6A3D6A2D
:10074C003E6A3F6ACA80CA92630ECB6E00DE03DE3D
:10075C00ABDD946AFF0E936E0C0EC16E406A6EDDBB
:10076C00406AFEDD89DFFC0E046EA90E056E710E6B
:10077C00066E7A0E076E4ADED9DE00C03CF001C070
:10078C003DF000C040F001C041F02C0E426E000E56
:10079C00436E86DF020E406E010E416E1F0E426EDE
:1007AC00000E436E2CDF020E406E0A0E416E2C0EB4
:1007BC00426E000E436E23DF010E406ED1DD5CDF16
:1007CC00390E046EB40E056E480E066E7B0E076E67
:1007DC001DDEACDE00C03EF001C03FF000C040F0BA
:1007EC0001C041F0320E426E000E436E59DF010E15
:1007FC00406E010E416E150E426E000E436EFFDE12
:10080C00010E406E0A0E416E320E426E000E436EA9
:10081C00F6DE810E406E0F0E416E010E426E010E21
:10082C00436E446ABCDD0052D8B48FD0FF0E406ECC
:10083C0005DD180ED66EC60ED76E860ED56E800EE2
:10084C003F18006E800E005C02E1000E3E5CD8A0EA
:10085C006FD0800E3D18006E800E3918005C02E1DE
:10086C0038503C5C2FE3810E406E0F0E416E030E30
:10087C00426E010E436E446A92DD005205E0010E99
:10088C003A6E000E3B6E1ED0F2A41BD0384A392AA9
:10089C0038503C5C406E39503D58416E2C0E426EC7
:1008AC00000E436EFDDE020E406E0A0E416E2C0EE3
:1008BC00426E000E436EA3DE180ED66EC60ED76EB9
:1008CC00F294C7D7000E3B1802E1010E3A1801E171
:1008DC002FD0386A396A3B0E3C6E000E3D6E010E0D
:1008EC003E5E000E3F5A3EC040F03FC041F0320E1B
:1008FC00426E000E436ED4DE010E406E0A0E416E47
:10090C00320E426E000E436E7ADE3CC040F03DC0AB
:10091C0041F02C0E426E000E436EC2DE020E406E93
:10092C000A0E416E2C0E426E000E436E68DE87D7A7
:10093C00000E3B1802E1000E3A1803E1FF0E826E26
:10094C0002D03A6A3B6A386A396A810E406E0F0EE1
:10095C00416E020E426E010E436E446A20DD00525F
:08096C00D8A4826AFBD6FFD774
:10098A0010EE15F0160E006E010E016E740EF66E64
:0E099A00090EF76E000EF86EA5EC01F01200CB
:0A0974004D696E75746F733A200030
:0B097E00536567756E646F733A2000CC
:01098900303D
:020000040030CA
:0E000000000C1F1EFF8181FF0FC00FE00F409C
:00000001FF
